{"abi":[{"type":"constructor","inputs":[{"name":"_owner","type":"address","internalType":"address"},{"name":"_ownerSmartWallet","type":"address","internalType":"address"},{"name":"_name","type":"string","internalType":"string"},{"name":"_uri","type":"string","internalType":"string"},{"name":"_initialBouncers","type":"address[]","internalType":"address[]"}],"stateMutability":"nonpayable"},{"type":"function","name":"addBouncer","inputs":[{"name":"_bouncer","type":"address","internalType":"address"}],"outputs":[],"stateMutability":"nonpayable"},{"type":"function","name":"addTicket","inputs":[{"name":"ticket","type":"address","internalType":"address"}],"outputs":[],"stateMutability":"nonpayable"},{"type":"function","name":"bouncers","inputs":[{"name":"","type":"address","internalType":"address"}],"outputs":[{"name":"","type":"bool","internalType":"bool"}],"stateMutability":"view"},{"type":"function","name":"entries","inputs":[{"name":"","type":"address","internalType":"address"}],"outputs":[{"name":"timestamp","type":"uint256","internalType":"uint256"},{"name":"ticketId","type":"uint256","internalType":"uint256"},{"name":"ticketAddress","type":"address","internalType":"address"}],"stateMutability":"view"},{"type":"function","name":"entry","inputs":[{"name":"_ticketId","type":"uint256","internalType":"uint256"},{"name":"_ticketAddress","type":"address","internalType":"address"},{"name":"_attendeeAddress","type":"address","internalType":"address"}],"outputs":[],"stateMutability":"nonpayable"},{"type":"function","name":"finishEvent","inputs":[],"outputs":[],"stateMutability":"nonpayable"},{"type":"function","name":"getEntry","inputs":[{"name":"_attendee","type":"address","internalType":"address"}],"outputs":[{"name":"","type":"tuple","internalType":"struct Event.Entry","components":[{"name":"timestamp","type":"uint256","internalType":"uint256"},{"name":"ticketId","type":"uint256","internalType":"uint256"},{"name":"ticketAddress","type":"address","internalType":"address"}]}],"stateMutability":"view"},{"type":"function","name":"hasEntry","inputs":[{"name":"_attendee","type":"address","internalType":"address"}],"outputs":[{"name":"","type":"bool","internalType":"bool"}],"stateMutability":"view"},{"type":"function","name":"isEventFinished","inputs":[],"outputs":[{"name":"","type":"bool","internalType":"bool"}],"stateMutability":"view"},{"type":"function","name":"isTicketUsed","inputs":[{"name":"_ticketAddress","type":"address","internalType":"address"},{"name":"_ticketId","type":"uint256","internalType":"uint256"}],"outputs":[{"name":"","type":"bool","internalType":"bool"}],"stateMutability":"view"},{"type":"function","name":"name","inputs":[],"outputs":[{"name":"","type":"string","internalType":"string"}],"stateMutability":"view"},{"type":"function","name":"owner","inputs":[],"outputs":[{"name":"","type":"address","internalType":"address"}],"stateMutability":"view"},{"type":"function","name":"ownerSmartWallet","inputs":[],"outputs":[{"name":"","type":"address","internalType":"address"}],"stateMutability":"view"},{"type":"function","name":"removeBouncer","inputs":[{"name":"_bouncer","type":"address","internalType":"address"}],"outputs":[],"stateMutability":"nonpayable"},{"type":"function","name":"renounceOwnership","inputs":[],"outputs":[],"stateMutability":"nonpayable"},{"type":"function","name":"setSmartWallet","inputs":[{"name":"_smartWallet","type":"address","internalType":"address"}],"outputs":[],"stateMutability":"nonpayable"},{"type":"function","name":"setURI","inputs":[{"name":"_uri","type":"string","internalType":"string"}],"outputs":[],"stateMutability":"nonpayable"},{"type":"function","name":"ticketCounter","inputs":[],"outputs":[{"name":"","type":"uint256","internalType":"uint256"}],"stateMutability":"view"},{"type":"function","name":"tickets","inputs":[{"name":"","type":"address","internalType":"address"}],"outputs":[{"name":"","type":"bool","internalType":"bool"}],"stateMutability":"view"},{"type":"function","name":"transferOwnership","inputs":[{"name":"newOwner","type":"address","internalType":"address"}],"outputs":[],"stateMutability":"nonpayable"},{"type":"function","name":"uri","inputs":[],"outputs":[{"name":"","type":"string","internalType":"string"}],"stateMutability":"view"},{"type":"event","name":"BouncerAdded","inputs":[{"name":"bouncer","type":"address","indexed":true,"internalType":"address"}],"anonymous":false},{"type":"event","name":"BouncerRemoved","inputs":[{"name":"bouncer","type":"address","indexed":true,"internalType":"address"}],"anonymous":false},{"type":"event","name":"Entrance","inputs":[{"name":"attendeeAddress","type":"address","indexed":true,"internalType":"address"},{"name":"timestamp","type":"uint256","indexed":false,"internalType":"uint256"},{"name":"ticketId","type":"uint256","indexed":false,"internalType":"uint256"},{"name":"ticketAddress","type":"address","indexed":false,"internalType":"address"}],"anonymous":false},{"type":"event","name":"EventFinished","inputs":[{"name":"timestamp","type":"uint256","indexed":true,"internalType":"uint256"}],"anonymous":false},{"type":"event","name":"OwnershipTransferred","inputs":[{"name":"previousOwner","type":"address","indexed":true,"internalType":"address"},{"name":"newOwner","type":"address","indexed":true,"internalType":"address"}],"anonymous":false},{"type":"event","name":"SmartWalletUpdated","inputs":[{"name":"previousWallet","type":"address","indexed":true,"internalType":"address"},{"name":"newWallet","type":"address","indexed":true,"internalType":"address"}],"anonymous":false},{"type":"event","name":"TicketAdded","inputs":[{"name":"ticketAddress","type":"address","indexed":true,"internalType":"address"}],"anonymous":false},{"type":"error","name":"OwnableInvalidOwner","inputs":[{"name":"owner","type":"address","internalType":"address"}]},{"type":"error","name":"OwnableUnauthorizedAccount","inputs":[{"name":"account","type":"address","internalType":"address"}]}],"bytecode":{"object":"0x60806040523480156200001157600080fd5b506040516200164938038062001649833981016040819052620000349162000328565b848484826001600160a01b0381166200006857604051631e4fbdf760e01b8152600060048201526024015b60405180910390fd5b6200007381620001e5565b506001600160a01b038216620000cc5760405162461bcd60e51b815260206004820152601660248201527f496e76616c69642077616c6c657420616464726573730000000000000000000060448201526064016200005f565b600180546001600160a01b0319166001600160a01b0384161790556002620000f58282620004e8565b5050505081600390816200010a9190620004e8565b5060005b8151811015620001d957600160086000848481518110620001335762000133620005b4565b60200260200101516001600160a01b03166001600160a01b0316815260200190815260200160002060006101000a81548160ff021916908315150217905550818181518110620001875762000187620005b4565b60200260200101516001600160a01b03167f763f80bc7de8ac5ea6e7fe2bc70b26a95a3663f71925677cc23847c9de3e948a60405160405180910390a280620001d081620005ca565b9150506200010e565b505050505050620005f2565b600080546001600160a01b038381166001600160a01b0319831681178455604051919092169283917f8be0079c531659141344cd1fd0a4f28419497f9722a3daafe3b4186f6b6457e09190a35050565b80516001600160a01b03811681146200024d57600080fd5b919050565b634e487b7160e01b600052604160045260246000fd5b604051601f8201601f191681016001600160401b038111828210171562000293576200029362000252565b604052919050565b600082601f830112620002ad57600080fd5b81516001600160401b03811115620002c957620002c962000252565b6020620002df601f8301601f1916820162000268565b8281528582848701011115620002f457600080fd5b60005b8381101562000314578581018301518282018401528201620002f7565b506000928101909101919091529392505050565b600080600080600060a086880312156200034157600080fd5b6200034c8662000235565b945060206200035d81880162000235565b60408801519095506001600160401b03808211156200037b57600080fd5b620003898a838b016200029b565b95506060890151915080821115620003a057600080fd5b620003ae8a838b016200029b565b94506080890151915080821115620003c557600080fd5b818901915089601f830112620003da57600080fd5b815181811115620003ef57620003ef62000252565b8060051b91506200040284830162000268565b818152918301840191848101908c8411156200041d57600080fd5b938501935b838510156200044657620004368562000235565b8252938501939085019062000422565b8096505050505050509295509295909350565b600181811c908216806200046e57607f821691505b6020821081036200048f57634e487b7160e01b600052602260045260246000fd5b50919050565b601f821115620004e357600081815260208120601f850160051c81016020861015620004be5750805b601f850160051c820191505b81811015620004df57828155600101620004ca565b5050505b505050565b81516001600160401b0381111562000504576200050462000252565b6200051c8162000515845462000459565b8462000495565b602080601f8311600181146200055457600084156200053b5750858301515b600019600386901b1c1916600185901b178555620004df565b600085815260208120601f198616915b82811015620005855788860151825594840194600190910190840162000564565b5085821015620005a45787850151600019600388901b60f8161c191681555b5050505050600190811b01905550565b634e487b7160e01b600052603260045260246000fd5b600060018201620005eb57634e487b7160e01b600052601160045260246000fd5b5060010190565b61104780620006026000396000f3fe608060405234801561001057600080fd5b50600436106101375760003560e01c8063888764c8116100b8578063a25047a21161007c578063a25047a2146102e1578063bbedb38e146102f4578063eac989f814610307578063f29ee1251461030f578063f2fde38b1461036b578063fa333cc21461037e57600080fd5b8063888764c81461024c5780638ac9882e1461025f5780638c4d59d01461026c5780638da5cb5b146102835780639fd3c913146102a857600080fd5b80636dcbf2a3116100ff5780636dcbf2a3146101c8578063715018a6146101eb5780637237a4b6146101f35780637db6a4e4146102065780637e65b5431461024457600080fd5b806302fe53051461013c57806306fdde03146101515780631479290e1461016f5780632687f0f0146101825780636a68abe814610195575b600080fd5b61014f61014a366004610ce5565b610391565b005b6101596103a9565b6040516101669190610d96565b60405180910390f35b61014f61017d366004610e00565b610437565b61014f610190366004610e00565b6104f5565b6101b86101a3366004610e00565b60086020526000908152604090205460ff1681565b6040519015158152602001610166565b6101b86101d6366004610e00565b60046020526000908152604090205460ff1681565b61014f6105a5565b61014f610201366004610e00565b6105b9565b610219610214366004610e00565b61068e565b604080518251815260208084015190820152918101516001600160a01b031690820152606001610166565b61014f6106ff565b61014f61025a366004610e00565b610741565b6006546101b89060ff1681565b61027560055481565b604051908152602001610166565b6000546001600160a01b03165b6040516001600160a01b039091168152602001610166565b6101b86102b6366004610e22565b6001600160a01b03919091166000908152600760209081526040808320938352929052205460ff1690565b6101b86102ef366004610e00565b6107fe565b600154610290906001600160a01b031681565b61015961086b565b61034761031d366004610e00565b6009602052600090815260409020805460018201546002909201549091906001600160a01b031683565b6040805193845260208401929092526001600160a01b031690820152606001610166565b61014f610379366004610e00565b610878565b61014f61038c366004610e4c565b6108b6565b610399610c24565b60036103a58282610f11565b5050565b600280546103b690610e88565b80601f01602080910402602001604051908101604052809291908181526020018280546103e290610e88565b801561042f5780601f106104045761010080835404028352916020019161042f565b820191906000526020600020905b81548152906001019060200180831161041257829003601f168201915b505050505081565b61043f610c24565b6001600160a01b03811660009081526008602052604090205460ff166104ac5760405162461bcd60e51b815260206004820152601860248201527f41646472657373206973206e6f74206120626f756e636572000000000000000060448201526064015b60405180910390fd5b6001600160a01b038116600081815260086020526040808220805460ff19169055517fbf2a9a574965cead59e34922ac68dfe2e6609c7fc94e566c32d45936b9486db49190a250565b6104fd610c24565b6001600160a01b0381166105535760405162461bcd60e51b815260206004820152601c60248201527f496e76616c696420736d6172742077616c6c657420616464726573730000000060448201526064016104a3565b600180546001600160a01b038381166001600160a01b0319831681179093556040519116919082907ff7b9883f256cf768ad054d3cfc455603983f3e2d2635d9dbe1a7f6f6546ca83a90600090a35050565b6105ad610c24565b6105b76000610c7f565b565b6105c1610c24565b6001600160a01b03811660009081526004602052604090205460ff16156106215760405162461bcd60e51b8152602060048201526014602482015273151a58dad95d08185b1c9958591e48185919195960621b60448201526064016104a3565b6001600160a01b0381166000908152600460205260408120805460ff19166001179055600580549161065283610fd1565b90915550506040516001600160a01b038216907f7f1b3eb060b0b41758fbfdc75a3fe2e4aac7a9cd80cc11764b8a07fe3872b09790600090a250565b6106bb6040518060600160405280600081526020016000815260200160006001600160a01b031681525090565b506001600160a01b03908116600090815260096020908152604091829020825160608101845281548152600182015492810192909252600201549092169082015290565b610707610c24565b6006805460ff1916600117905560405142907f6d5cb77854df22bf60285fbb42002d3eb3b9808505e6a9c815a43faabd2d721090600090a2565b610749610c24565b6001600160a01b03811660009081526008602052604090205460ff16156107b25760405162461bcd60e51b815260206004820152601c60248201527f4164647265737320697320616c7265616479206120626f756e6365720000000060448201526064016104a3565b6001600160a01b038116600081815260086020526040808220805460ff19166001179055517f763f80bc7de8ac5ea6e7fe2bc70b26a95a3663f71925677cc23847c9de3e948a9190a250565b6001600160a01b03811660009081526009602052604081205415158061083e57506001600160a01b03821660009081526009602052604090206001015415155b8061086557506001600160a01b038281166000908152600960205260409020600201541615155b92915050565b600380546103b690610e88565b610880610c24565b6001600160a01b0381166108aa57604051631e4fbdf760e01b8152600060048201526024016104a3565b6108b381610c7f565b50565b3360009081526008602052604090205460ff166109155760405162461bcd60e51b815260206004820152601760248201527f43616c6c6572206973206e6f74206120626f756e63657200000000000000000060448201526064016104a3565b60065460ff161561095d5760405162461bcd60e51b8152602060048201526012602482015271115d995b9d081a185cc8199a5b9a5cda195960721b60448201526064016104a3565b6001600160a01b038216600090815260076020908152604080832086845290915290205460ff16156109db5760405162461bcd60e51b815260206004820152602160248201527f54686973207469636b657420686173206265656e20616c7265616479207573656044820152601960fa1b60648201526084016104a3565b6001600160a01b03821660009081526004602052604090205460ff16610a3c5760405162461bcd60e51b8152602060048201526016602482015275496e76616c6964207469636b6574206164647265737360501b60448201526064016104a3565b610a45816107fe565b15610a925760405162461bcd60e51b815260206004820152601c60248201527f417474656e6465652068617320616c726561647920656e74657265640000000060448201526064016104a3565b604051627eeac760e11b81526001600160a01b03828116600483015260248201859052839160009183169062fdd58e90604401602060405180830381865afa158015610ae2573d6000803e3d6000fd5b505050506040513d601f19601f82011682018060405250810190610b069190610ff8565b11610b5d5760405162461bcd60e51b815260206004820152602160248201527f417474656e64656520646f6573206e6f74206f776e2074686973207469636b656044820152601d60fa1b60648201526084016104a3565b60408051606080820183524280835260208084018981526001600160a01b038981168688018181528a83166000818152600987528a812099518a5594516001808b01919091559151600290990180546001600160a01b0319169990941698909817909255808352600784528783208c8452845291879020805460ff1916909117905585519283529082018990529381019390935290917fd709f278cc3a47eb4aa52854b9571fc0aa04503fdace3e7bfbf32b169fe1f02c910160405180910390a250505050565b6000546001600160a01b0316331480610c4757506001546001600160a01b031633145b6105b75760405162461bcd60e51b81526020600482015260096024820152682737ba1037bbb732b960b91b60448201526064016104a3565b600080546001600160a01b038381166001600160a01b0319831681178455604051919092169283917f8be0079c531659141344cd1fd0a4f28419497f9722a3daafe3b4186f6b6457e09190a35050565b634e487b7160e01b600052604160045260246000fd5b600060208284031215610cf757600080fd5b813567ffffffffffffffff80821115610d0f57600080fd5b818401915084601f830112610d2357600080fd5b813581811115610d3557610d35610ccf565b604051601f8201601f19908116603f01168101908382118183101715610d5d57610d5d610ccf565b81604052828152876020848701011115610d7657600080fd5b826020860160208301376000928101602001929092525095945050505050565b600060208083528351808285015260005b81811015610dc357858101830151858201604001528201610da7565b506000604082860101526040601f19601f8301168501019250505092915050565b80356001600160a01b0381168114610dfb57600080fd5b919050565b600060208284031215610e1257600080fd5b610e1b82610de4565b9392505050565b60008060408385031215610e3557600080fd5b610e3e83610de4565b946020939093013593505050565b600080600060608486031215610e6157600080fd5b83359250610e7160208501610de4565b9150610e7f60408501610de4565b90509250925092565b600181811c90821680610e9c57607f821691505b602082108103610ebc57634e487b7160e01b600052602260045260246000fd5b50919050565b601f821115610f0c57600081815260208120601f850160051c81016020861015610ee95750805b601f850160051c820191505b81811015610f0857828155600101610ef5565b5050505b505050565b815167ffffffffffffffff811115610f2b57610f2b610ccf565b610f3f81610f398454610e88565b84610ec2565b602080601f831160018114610f745760008415610f5c5750858301515b600019600386901b1c1916600185901b178555610f08565b600085815260208120601f198616915b82811015610fa357888601518255948401946001909101908401610f84565b5085821015610fc15787850151600019600388901b60f8161c191681555b5050505050600190811b01905550565b600060018201610ff157634e487b7160e01b600052601160045260246000fd5b5060010190565b60006020828403121561100a57600080fd5b505191905056fea264697066735822122065812f0fa8d7a6518edabae34c505cbb718c03112ed63772ff667ef3482f88bf64736f6c63430008140033","linkReferences":{}},"methodIdentifiers":{"addBouncer(address)":"888764c8","addTicket(address)":"7237a4b6","bouncers(address)":"6a68abe8","entries(address)":"f29ee125","entry(uint256,address,address)":"fa333cc2","finishEvent()":"7e65b543","getEntry(address)":"7db6a4e4","hasEntry(address)":"a25047a2","isEventFinished()":"8ac9882e","isTicketUsed(address,uint256)":"9fd3c913","name()":"06fdde03","owner()":"8da5cb5b","ownerSmartWallet()":"bbedb38e","removeBouncer(address)":"1479290e","renounceOwnership()":"715018a6","setSmartWallet(address)":"2687f0f0","setURI(string)":"02fe5305","ticketCounter()":"8c4d59d0","tickets(address)":"6dcbf2a3","transferOwnership(address)":"f2fde38b","uri()":"eac989f8"},"id":46}